:020000040800F2
:1000000000280020911F0008011C0008071C0008A0
:100010000D1C0008131C0008191C0008000000003B
:100020000000000000000000000000001F1C00088D
:100030002B1C000800000000371C0008431C0008AF
:10004000D91F0008D91F0008D91F0008D91F0008B0
:10005000D91F0008D91F0008D91F0008D91F0008A0
:10006000D91F0008D91F0008D91F0008D91F000890
:10007000D91F0008D91F0008D91F0008D91F000880
:10008000D91F0008D91F0008D91F0008D91F000870
:10009000D91F0008D91F0008D91F0008D91F000860
:1000A000D91F0008D91F0008D91F0008D91F000850
:1000B000511C0008D91F000800000000D91F0008CB
:1000C000D91F00080000000000000000D91F000830
:1000D00000000000D91F0008D91F00080000000020
:1000E000D91F0008D91F0008D91F00080000000010
:1000F0000000000000000000000000000000000000
:0C01000000000000000000005FF808F1A3
:10010C0010B5054C237833B9044B13B10448AFF345
:10011C0000800123237010BD4C0000200000000063
:10012C000836000808B5034B1BB103490348AFF36D
:10013C00008008BD000000005000002008360008B8
:10014C0080B582B000AF78607B68023B052B2DD860
:10015C0001A252F823F000BF7D01000887010008BE
:10016C00910100089B010008A5010008AF010008DF
:10017C0000F044FF00F060FF18E000F049FF00F0D1
:10018C0065FF13E000F04EFF00F06AFF0EE000F098
:10019C0035FF00F051FF09E000F03AFF00F056FF88
:1001AC0004E000F03FFF00F05BFF00BF00BF08372A
:1001BC00BD4680BD80B500AFB34B1B680C3B062B16
:1001CC0000F22D8201A252F823F000BFF5010008C5
:1001DC009D02000845030008ED030008B504000863
:1001EC005B0500082B060008A84B02221A6001F0E0
:1001FC0041FE0346002B08D04FF47A7001F04EFDFF
:10020C00A24B1B681846FFF79BFF022000F052FE22
:10021C000346002B0FD000F02DFF9D4B1B684FF4B5
:10022C007A7202FB03F39B4A1360994B01221A600A
:10023C00954B0D221A60012000F03CFE0346002B6A
:10024C0016D0934B1B685A1C934B83FB02139911CA
:10025C00D317CB1A4FF47A7101FB03F3D31A8C4AE0
:10026C0013608B4B1B68002B02D1894B01221A6047
:10027C00002000F01FFE0346002B00F0D28100F09E
:10028C00F9FE834B01221A607F4B0D221A60C8E1E4
:10029C007E4B03221A6001F0EDFD0346002B08D0C3
:1002AC004FF47A7001F0FAFC784B1B681846FFF794
:1002BC0047FF022000F0FEFD0346002B0FD000F09C
:1002CC00D9FE734B1B684FF47A7202FB03F3734A2B
:1002DC0013606F4B01221A606B4B0E221A600120C7
:1002EC0000F0E8FD0346002B16D0694B1B685A1C26
:1002FC00694B83FB02139911D317CB1A4FF47A7104
:10030C0001FB03F3D31A624A1360614B1B68002B89
:10031C0002D15F4B01221A60002000F0CBFD034696
:10032C00002B00F0808100F0A5FE594B01221A60D1
:10033C00554B0E221A6076E1544B04221A6001F0E0
:10034C0099FD0346002B08D04FF47A7001F0A6FCFF
:10035C004E4B1B681846FFF7F3FE022000F0AAFD77
:10036C000346002B0FD000F085FE494B1B684FF461
:10037C007A7202FB03F34A4A1360454B01221A605E
:10038C00414B0F221A60012000F094FD0346002B14
:10039C0016D03F4B1B685A1C3F4B83FB0213991121
:1003AC00D317CB1A4FF47A7101FB03F3D31A384AE3
:1003BC001360374B1B68002B02D1354B01221A609E
:1003CC00002000F077FD0346002B00F02E8100F09A
:1003DC0051FE2F4B01221A602B4B0F221A6024E185
:1003EC002A4B05221A6001F045FD0346002B08D06C
:1003FC004FF47A7001F052FC244B1B681846FFF73F
:10040C009FFE022000F056FD0346002B0FD000F09B
:10041C0031FE1F4B1B684FF47A7202FB03F3214A27
:10042C0013601B4B01221A60174B10221A6001201B
:10043C0000F040FD0346002B16D0154B1B685A1CD0
:10044C00154B83FB02139911D317CB1A4FF47A7106
:10045C0001FB03F3D31A0E4A13600D4B1B68002BE0
:10046C0002D10B4B01221A60002000F023FD034641
:10047C00002B00F0DC8000F0FDFD054B01221A6022
:10048C00014B10221A60D2E0100000203000002036
:10049C002C00002014000020D34D62101800002006
:1004AC001C00002020000020644B06221A6001F082
:1004BC00E1FC0346002B08D04FF47A7001F0EEFB00
:1004CC005E4B1B681846FFF73BFE022000F0F2FC67
:1004DC000346002B0FD000F0CDFD594B1B684FF499
:1004EC007A7202FB03F3574A1360554B01221A60D0
:1004FC00554B11221A60012000F0DCFC0346002B46
:10050C0016D04F4B1B685A1C504B83FB021399118E
:10051C00D317CB1A4FF47A7101FB03F3D31A484A61
:10052C001360474B1B68002B02D1454B01221A600C
:10053C00002000F0BFFC0346002B7AD000F09AFD9F
:10054C003F4B01221A60404B11221A6071E03B4B69
:10055C0007221A6001F08EFC0346002B08D04FF4E2
:10056C007A7001F09BFB354B1B681846FFF7E8FDD2
:10057C00022000F09FFC0346002B1CD000F07AFDFB
:10058C002F4B1B684FF47A7202FB03F3304A136053
:10059C002B4B01221A602F4B01221A602D4B1B682A
:1005AC002D4A1360284B12221A602C4B2C4A1A60CD
:1005BC002C4B2D4A1A60012000F07CFC0346002BCA
:1005CC0011D01F4B1A68294B83FB0213134499114A
:1005DC00D317C91A0B465B000B4459010B44D11AB3
:1005EC004B1C174A1360002000F064FC0346002BE0
:1005FC0021D000F03FFD124B01221A60154B012255
:10060C001A60144B1B68144A13600F4B12221A60A9
:10061C00124B134A1A60134B134A1A600BE000BFBB
:10062C000AE000BF08E000BF06E000BF04E000BF26
:10063C0002E000BF00E000BF00BF80BD3000002022
:10064C002C0000202400002010000020D34D62104C
:10065C0028000020740000207000002014010020ED
:10066C0068000020180100206C00002003B57EA556
:10067C0080B500AF002000F01DFC0346002B24D0F9
:10068C0000F0F8FC124B1B68124A1360124B1B68EB
:10069C00124A13600E4B12221A600F4B12221A6070
:1006AC000F4B0C221A6001F02DFC01F03BFC01F009
:1006BC0049FC01F057FC4FF47A7001F0EFFA094B4A
:1006CC00094A1A60094B0A4A1A6000BF80BD00BF74
:1006DC000000002004000020080000200C00002076
:1006EC0010000020140100202C0000201801002014
:1006FC003000002080B500AFAA4B1B68013B112BCA
:10070C0000F24A8101A252F823F000BF61070008F1
:10071C00A70700086908000809080008A5090008CF
:10072C00A5090008A5090008A5090008A5090008E5
:10073C00A5090008A5090008A5090008A5090008D5
:10074C00A5090008A5090008A5090008A5090008C5
:10075C00CB08000800F0CEFB924B02221A60914BA2
:10076C001B68914A1360914B1B68184601F096FA6E
:10077C004FF47A7001F0CAFA8C4B1B688C4A82FBDE
:10078C0003129211DB17D31A8A4A13608A4B894AD7
:10079C001A608A4B01221A6001E100F0ABFB874B17
:1007AC0001221A6001F08AFB0346002B08D04FF49B
:1007BC007A7001F0ABFA7F4B1B68013B7D4A1360EA
:1007CC0001F058FB0346012B15D17D4B1B681846D5
:1007DC0001F064FA734B04221A604FF47A7001F042
:1007EC0095FA774B1B68724A82FB03129211DB1746
:1007FC00D31A704A1360FFF73BFFD0E06F4B012216
:10080C001A6000F0A3FB01F059FB0346002B07D044
:10081C00642001F07BFA674B1B68013B654A13604F
:10082C0001F028FB0346012B15D1664B1B681846BB
:10083C0001F034FA5B4B03221A604FF47A7001F02A
:10084C0065FA604B1B685A4A82FB03129211DB1744
:10085C00D31A584A1360FFF70BFFA0E0574B012245
:10086C001A6000F05DFB01F029FB0346002B08D059
:10087C004FF47A7001F04AFA4E4B1B68013B4D4A1B
:10088C00136001F0F7FA0346012B15D1474B1B6897
:10089C00184601F003FA434B02221A604FF47A70A7
:1008AC0001F034FA414B1B68414A82FB031292114E
:1008BC00DB17D31A3F4A1360FFF7DAFE6FE03A4BAF
:1008CC001B68022B1FD1404B1B68002B1BD000F068
:1008DC00D1FB354B1B68334A13603B4B00221A602B
:1008EC004FF47A7001F012FA304B1B68184601F085
:1008FC00D5F92E4B1B682E4A82FB03129211DB1783
:10090C00D31A2C4A1360284B1B68042B1FD12E4B77
:10091C001B68002B1BD02C4B00221A60224B1B682F
:10092C00204A136000F0A6FB4FF47A7001F0EEF948
:10093C00234B1B68184601F0B1F9214B1B681C4A6C
:10094C0082FB03129211DB17D31A1A4A1360164B4F
:10095C001B68032B22D11C4B1B68002B1ED01A4B7F
:10096C0000221A60104B1B680E4A136000F082FBC9
:10097C004FF47A7001F0CAF9124B1B68184601F05B
:10098C008DF9104B1B680A4A82FB03129211DB177C
:10099C00D31A084A136001E000BF00E000BF00BF9B
:1009AC0080BD00BF000000200400002014000020C7
:1009BC00D34D62106800002014010020300000208C
:1009CC001C000020180000207000002080B500AF33
:1009DC00AA4B1B68013B112B00F24B8101A252F870
:1009EC0023F000BF390A00087F0A0008430B0008F7
:1009FC00E10A00087F0C00087F0C00087F0C00083F
:100A0C007F0C00087F0C00087F0C00087F0C00088E
:100A1C007F0C00087F0C00087F0C00087F0C00087E
:100A2C007F0C00087F0C0008A50B000800F0D0FA22
:100A3C00924B04221A60914B1B68914A1360914BA4
:100A4C001B68184601F046F94FF47A7001F07AF9F8
:100A5C008C4B1B688C4A82FB03129211DB17D31A46
:100A6C008A4A13608A4B894A1A608A4B01221A609F
:100A7C0002E100F081FA874B01221A6001F030FA92
:100A8C000346002B08D04FF47A7001F05BF97F4BD2
:100A9C001B68013B7D4A136001F0FEF90346012BF4
:100AAC0015D1784B1B68184601F014F9734B0422CE
:100ABC001A604FF47A7001F045F9724B1B68724A58
:100ACC0082FB03129211DB17D31A704A1360FFF7E3
:100ADC00CFFDD1E06F4B01221A6000F079FA01F0E2
:100AEC00FFF90346002B08D04FF47A7001F02AF975
:100AFC00664B1B68013B654A136001F0CDF9034658
:100B0C00012B15D1644B1B68184601F0E3F85B4BC5
:100B1C0003221A604FF47A7001F014F95E4B1B68D3
:100B2C00594A82FB03129211DB17D31A574A1360EE
:100B3C00FFF79EFDA0E0574B01221A6000F032FA3D
:100B4C0001F0CEF90346002B08D04FF47A7001F077
:100B5C00F9F84E4B1B68013B4C4A136001F09CF9B1
:100B6C000346012B15D14D4B1B68184601F0B2F80A
:100B7C00424B02221A604FF47A7001F0E3F8474BB3
:100B8C001B68414A82FB03129211DB17D31A3F4AAE
:100B9C001360FFF76DFD6FE0394B1B68022B1FD103
:100BAC003F4B1B68002B1BD000F064FA344B1B68C6
:100BBC00324A13603A4B00221A604FF47A7001F0FB
:100BCC00C1F8364B1B68184601F084F8334B1B6890
:100BDC002D4A82FB03129211DB17D31A2B4A136096
:100BEC00274B1B68042B1FD12D4B1B68002B1BD0D4
:100BFC002B4B00221A60224B1B68204A136000F01A
:100C0C0039FA4FF47A7001F09DF81E4B1B681846A8
:100C1C0001F060F81B4B1B681B4A82FB03129211FC
:100C2C00DB17D31A194A1360154B1B68032B22D1FF
:100C3C001B4B1B68002B1ED0194B00221A60104B4B
:100C4C001B680E4A136000F015FA4FF47A7001F02D
:100C5C0079F8114B1B68184601F03CF80E4B1B68D9
:100C6C00094A82FB03129211DB17D31A074A13604D
:100C7C0001E000BF00E000BF00BF80BD0800002005
:100C8C000C00002028000020D34D62106C000020C6
:100C9C00180100203000002024000020200000203B
:100CAC007400002080B500AF00F038F8194B4FF6F7
:100CBC00FF72DA60642000F0D5FF01224FF400715E
:100CCC00154801F086FC01224FF48061124801F0B6
:100CDC0080FC00220421104801F07BFC0122082139
:100CEC000D4801F076FC012210210B4801F071FC3B
:100CFC0001222021084801F06CFC01224021064809
:100D0C0001F067FC00228021034801F062FC00BF67
:100D1C0080BD00BF000C01400008014080B483B0CE
:100D2C0000AF0023FB7120E0FB79144A0121D15460
:100D3C00FB79134A0121D154FB79124A0121D15478
:100D4C00FB79114A0121D154FB79104A002142F858
:100D5C002310FB790E4A0021D154FB790D4A002156
:100D6C0022F81310FB790133FB71FB79022BDBD9D1
:100D7C0000BF00BF0C37BD4680BC70477800002018
:100D8C007C0000208000002084000020C000002097
:100D9C00880000208C00002090B583B000AF0023A9
:100DAC00FB716BE0FA79FB793849895C384AD1548C
:100DBC00FA79FB793749895C344AD154FB79364A44
:100DCC0032F81330FC791946344801F0EBFB03463A
:100DDC001A46304B1A55FB792C4AD25CFB792D49BB
:100DEC00CB5C9A4247D1FB79284AD25CFB792849E3
:100DFC00CB5C9A423FD1FB79254AD25CFB792849DE
:100E0C00CB5C9A4223D0FA79FB792149895C244A3C
:100E1C00D154FB79224AD35C002B09D1214B4FF4DE
:100E2C00FA721A60FB79204A012142F8231022E061
:100E3C001C4B1B68013B1B4A1360FB791B4A0021AE
:100E4C0022F81310FB79164A0121D15413E0FB79D7
:100E5C00164A32F81330632B09D8FB79134A32F84F
:100E6C001320013291B2114A22F8131003E0FB79DE
:100E7C000F4A0121D154FB790133FB71FB79022B11
:100E8C0090D900BF00BF0C37BD4690BD7C00002040
:100E9C00800000207800002038000020000801406D
:100EAC008400002034000020C00000208C000020B2
:100EBC008800002080B483B000AF0346FB71FB793F
:100ECC00022B01D900230DE0FB79094A52F823309B
:100EDC00012B06D1FB79064A002142F8231001238D
:100EEC0000E0002318460C37BD4680BC704700BF9D
:100EFC00C000002080B500AF00220421074801F09B
:100F0C0068FB01221021054801F063FB0122082136
:100F1C00024801F05EFB00BF80BD00BF000801402D
:100F2C0080B500AF01220421074801F052FB0122D9
:100F3C001021054801F04DFB00220821024801F068
:100F4C0048FB00BF80BD00BF0008014080B500AF6A
:100F5C0001220421074801F03CFB00221021054826
:100F6C0001F037FB01220821024801F032FB00BFDF
:100F7C0080BD00BF0008014080B500AF00222021D9
:100F8C00074801F026FB01228021054801F021FBD6
:100F9C0001224021024801F01CFB00BF80BD00BFB4
:100FAC000008014080B500AF01222021074801F064
:100FBC0010FB01228021054801F00BFB002240218F
:100FCC00024801F006FB00BF80BD00BF00080140D5
:100FDC0080B500AF01222021074801F0FAFA002267
:100FEC008021054801F0F5FA01224021024801F068
:100FFC00F0FA00BF80BD00BF0008014080B500AF13
:10100C000421024801F0FDFA00BF80BD0008014038
:10101C0080B500AF0821024801F0F3FA00BF80BD93
:10102C000008014080B500AF1021024801F0E9FA38
:10103C0000BF80BD0008014080B500AF20210248F0
:10104C0001F0DFFA00BF80BD0008014080B500AFA1
:10105C004021024801F0D5FA00BF80BD00080140D4
:10106C0080B500AF8021024801F0CBFA00BF80BDF3
:10107C000008014080B500AF012204210E4801F0A8
:10108C00A8FA012210210C4801F0A3FA0122082130
:10109C00094801F09EFA01222021074801F099FA33
:1010AC0001228021044801F094FA012240210248D7
:1010BC0001F08FFA00BF80BD0008014080B500AF81
:1010CC0000F086FF00F014F800F09AF800F04CF8ED
:1010DC00064801F0DBFEFFF7E5FDFFF70BFBFFF722
:1010EC0075FCFFF767F800F0A9FCF6E7CC000020D0
:1010FC0080B590B000AF07F11803282200211846E4
:10110C0002F074FA3B1D00221A605A609A60DA6091
:10111C001A610223BB610123BB621023FB62002313
:10112C007B6307F11803184601F084FA0346002B81
:10113C0001D000F0D5F80F237B600023BB600023A7
:10114C00FB6000233B6100237B613B1D00211846A3
:10115C0001F0F0FC0346002B01D000F0C1F800BFF9
:10116C004037BD4680BD000080B586B000AF07F1AA
:10117C00080300221A605A609A60DA603B4600222B
:10118C001A605A601D4B4FF080421A601B4B41F69F
:10119C003F725A60194B00229A60184B0922DA6090
:1011AC00164B00221A61154B00229A61134801F06C
:1011BC001DFE0346002B01D000F092F84FF4805333
:1011CC00BB6007F1080319460C4801F09BFF03466E
:1011DC00002B01D000F084F800233B6000237B60DF
:1011EC003B461946054802F073F90346002B01D023
:1011FC0000F076F800BF1837BD4680BDCC0000204B
:10120C0080B586B000AF07F1080300221A605A605F
:10121C009A60DA60294B9B69284A43F00403936176
:10122C00264B9B6903F004037B607B68234B9B6913
:10123C00224A43F008039361204B9B6903F0080397
:10124C003B603B68002240F2FC611D4801F0C1F993
:10125C00002243F6FF711B4801F0BBF940F2FC631E
:10126C00BB600123FB6000233B6102237B6107F120
:10127C0008031946124801F01BF843F6FF73BB60D4
:10128C000123FB6000233B6102237B6107F1080310
:10129C0019460C4801F00CF84FF46043BB60002376
:1012AC00FB6001233B6107F108031946044800F079
:1012BC00FFFF00BF1837BD4680BD00BF00100240C5
:1012CC0000080140000C014080B582B000AF78608E
:1012DC0000F054FDFFF760FD00BF0837BD4680BD30
:1012EC0080B400AF72B600BFFEE7000080B582B0DC
:1012FC0000AF78607B68092B00F2808101A252F864
:10130C0023F000BF3913000881130008C91300082B
:10131C001114000859140008A1140008E91400085D
:10132C003115000879150008C115000800220121AB
:10133C00C64801F04EF900220221C44801F049F9D7
:10134C0000220421C14801F044F900220821BF48C1
:10135C0001F03FF900221021BC4801F03AF90022BB
:10136C002021BA4801F035F901224021B74801F09B
:10137C0030F967E101220121B44801F02AF9002279
:10138C000221B24801F025F900220421AF4801F0F6
:10139C0020F901220821AD4801F01BF9012210218E
:1013AC00AA4801F016F901222021A84801F011F9F0
:1013BC0001224021A54801F00CF943E10022012152
:1013CC00A24801F006F900220221A04801F001F91F
:1013DC00012204219D4801F0FCF8002208219B48C1
:1013EC0001F0F7F800221021984801F0F2F80122E0
:1013FC002021964801F0EDF800224021934801F09D
:10140C00E8F81FE100220121904801F0E2F80022E7
:10141C0002218E4801F0DDF8002204218B4801F0F6
:10142C00D8F800220821894801F0D3F801221021B4
:10143C00864801F0CEF801222021844801F0C9F839
:10144C0000224021814801F0C4F8FBE00122012177
:10145C007E4801F0BEF8002202217C4801F0B9F868
:10146C0000220421794801F0B4F8012208217748C0
:10147C0001F0AFF801221021744801F0AAF8002203
:10148C002021724801F0A5F8002240216F4801F09C
:10149C00A0F8D7E0002201216C4801F09AF8012253
:1014AC0002216A4801F095F800220421674801F0F6
:1014BC0090F800220821654801F08BF801221021D8
:1014CC00624801F086F800222021604801F081F882
:1014DC00002240215D4801F07CF8B3E0002201219C
:1014EC005A4801F076F801220221584801F071F8AF
:1014FC0000220421554801F06CF8002208215348C1
:10150C0001F067F800221021504801F062F8002227
:10151C0020214E4801F05DF8002240214B4801F09B
:10152C0058F88FE000220121484801F052F80022BF
:10153C000221464801F04DF800220421434801F0F5
:10154C0048F801220821414801F043F801221021FA
:10155C003E4801F03EF8012220213C4801F039F8C8
:10156C0001224021394801F034F86BE000220121BE
:10157C00364801F02EF800220221344801F029F8F7
:10158C0000220421314801F024F8002208212F48C0
:10159C0001F01FF8002210212C4801F01AF800224B
:1015AC0020212A4801F015F800224021274801F09B
:1015BC0010F847E000220121244801F00AF800222B
:1015CC000221224801F005F8002204211F4801F0F5
:1015DC0000F8002208211D4800F0FBFF0122102119
:1015EC001A4800F0F6FF00222021184800F0F1FF05
:1015FC0000224021154800F0ECFF23E001220121DC
:10160C00124800F0E6FF01220221104800F0E1FF31
:10161C00012204210D4800F0DCFF012208210B48B7
:10162C0000F0D7FF01221021084800F0D2FF012260
:10163C002021064800F0CDFF01224021034800F094
:10164C00C8FF00BF00BF0837BD4680BD000C01407D
:10165C0080B582B000AF78607B68092B00F2BE8148
:10166C0001A252F823F000BF9D160008F1160008E5
:10167C004517000899170008ED17000841180008D5
:10168C0095180008E91800083D1900089119000880
:10169C0000228021D04800F09CFF00224FF4807182
:1016AC00CD4800F096FF00224FF40071CA4800F0BC
:1016BC0090FF00224FF48061C74800F08AFF00229F
:1016CC004FF40061C44800F084FF00224FF48051B5
:1016DC00C14800F07EFF01224FF40051BE4800F0DB
:1016EC0078FFA5E101228021BB4800F072FF0022A7
:1016FC004FF48071B84800F06CFF00224FF4007179
:10170C00B54800F066FF01224FF48061B24800F04A
:10171C0060FF01224FF40061AF4800F05AFF012234
:10172C004FF48051AC4800F054FF01224FF40051AB
:10173C00A94800F04EFF7BE100228021A64800F072
:10174C0048FF00224FF48071A34800F042FF0122B1
:10175C004FF48061A04800F03CFF00224FF4806100
:10176C009D4800F036FF00224FF400619A4800F0CB
:10177C0030FF01224FF48051974800F02AFF0022DD
:10178C004FF40051944800F024FF51E10022012154
:10179C00914800F01EFF00224FF480718E4800F03B
:1017AC0018FF00224FF400718B4800F012FF00224A
:1017BC004FF48061884800F00CFF01224FF4006167
:1017CC00854800F006FF01224FF48051824800F05A
:1017DC0000FF00224FF400517F4800F0FAFE27E191
:1017EC00012280217C4800F0F4FE01224FF480712C
:1017FC00794800F0EEFE00224FF40071764800F0BC
:10180C00E8FE01224FF48061734800F0E2FE0122F1
:10181C004FF40061704800F0DCFE00224FF4805160
:10182C006D4800F0D6FE00224FF400516A4800F0DB
:10183C00D0FEFDE000228021674800F0CAFE0122A4
:10184C004FF48071644800F0C4FE00224FF4007124
:10185C00614800F0BEFE00224FF480615E4800F04B
:10186C00B8FE01224FF400615B4800F0B2FE00228A
:10187C004FF48051584800F0ACFE00224FF4005158
:10188C00554800F0A6FED3E000228021524800F01B
:10189C00A0FE01224FF480714F4800F09AFE002206
:1018AC004FF400714C4800F094FE00224FF480611C
:1018BC00494800F08EFE00224FF40061464800F0CB
:1018CC0088FE00224FF48051434800F082FE002233
:1018DC004FF40051404800F07CFEA9E0002280212A
:1018EC003D4800F076FE00224FF480713A4800F03B
:1018FC0070FE00224FF40071374800F06AFE01229E
:10190C004FF48061344800F064FE01224FF4006112
:10191C00314800F05EFE01224FF480512E4800F059
:10192C0058FE01224FF400512B4800F052FE7FE08C
:10193C0000228021284800F04CFE00224FF48071D8
:10194C00254800F046FE00224FF40071224800F0BA
:10195C0040FE00224FF480611F4800F03AFE002246
:10196C004FF400611C4800F034FE00224FF480510B
:10197C00194800F02EFE00224FF40051164800F0DA
:10198C0028FE55E000228021134800F022FE0022A0
:10199C004FF48071104800F01CFE00224FF40071CF
:1019AC000D4800F016FE00224FF480610A4800F04A
:1019BC0010FE01224FF40061074800F00AFE0022DD
:1019CC004FF48051044800F004FE00224FF4005103
:1019DC00014800F0FEFD2BE0000C014001228021AB
:1019EC00154800F0F6FD01224FF48071124800F00A
:1019FC00F0FD01224FF400710F4800F0EAFD0122C6
:101A0C004FF480610C4800F0E4FD01224FF40061BA
:101A1C00094800F0DEFD01224FF48051064800F029
:101A2C00D8FD01224FF40051034800F0D2FD00BF55
:101A3C0000BF0837BD4680BD000C014080B500AF2B
:101A4C0000F006FA0346002B70D04FF4FA7000F049
:101A5C0009F9374B1B68002B02D0012B2ED05BE011
:101A6C00344B4FF6FF72DA60334B1B681A68334BFA
:101A7C0083FB02139910D317C91A0B469B000B4416
:101A8C005B00D11A0846FFF731FC2B4B1B681B6817
:101A9C002A4A82FB03129210DB17D31A1846FFF75F
:101AAC00D7FD00224FF40071254800F092FD012271
:101ABC004FF48061224800F08CFD2DE01D4B4FF659
:101ACC00FF72DA601F4B1B681A681C4B83FB0213F6
:101ADC009910D317C91A0B469B000B445B00D11A03
:101AEC000846FFF703FC174B1B681B68134A82FB65
:101AFC0003129210DB17D31A1846FFF7A9FD012227
:101B0C004FF400710E4800F064FD00224FF4806128
:101B1C000B4800F05EFD00BF054B1B680133002B2A
:101B2C0003F00103B8BF5B42014A136000BF80BDE4
:101B3C0094000020000C01401401002067666666CA
:101B4C00000801401801002080B485B000AF154B8F
:101B5C009B69144A43F001039361124B9B6903F098
:101B6C000103BB60BB680F4BDB690E4A43F080532B
:101B7C00D3610C4BDB6903F080537B607B680A4BB1
:101B8C005B68FB60FB6823F0E063FB60FB6843F081
:101B9C008063FB60044AFB68536000BF1437BD468A
:101BAC0080BC7047001002400000014080B584B03A
:101BBC0000AF78607B681B68B3F1804F13D10C4B7E
:101BCC00DB690B4A43F00103D361094BDB6903F07A
:101BDC000103FB60FB68002200211C2000F031FB9C
:101BEC001C2000F04AFB00BF1037BD4680BD00BF73
:101BFC000010024080B400AFFEE780B400AFFEE7F7
:101C0C0080B400AFFEE780B400AFFEE780B400AF55
:101C1C00FEE780B400AF00BFBD4680BC704780B407
:101C2C0000AF00BFBD4680BC704780B400AF00BFA2
:101C3C00BD4680BC704780B500AF00F00FFA00BF06
:101C4C0080BD000080B500AF024801F06BF900BF09
:101C5C0080BD00BFCC00002080B400AF00BFBD46EB
:101C6C0080BC704780B483B000AF78607B68084A52
:101C7C0082FB03129210DB17D31A064A1360064B31
:101C8C0000221A6000BF0C37BD4680BC704700BFF5
:101C9C006766666698000020AC00002080B483B0B4
:101CAC0000AF78607B68084A82FB03129210DB1746
:101CBC00D31A064A1360064B00221A6000BF0C3779
:101CCC00BD4680BC704700BF676666669C000020FE
:101CDC00B000002080B483B000AF78607B68084A05
:101CEC0082FB03129210DB17D31A064A1360064BC1
:101CFC0000221A6000BF0C37BD4680BC704700BF85
:101D0C0067666666A0000020B400002080B483B033
:101D1C0000AF78607B68084A82FB03129210DB17D5
:101D2C00D31A064A1360064B00221A6000BF0C3708
:101D3C00BD4680BC704700BF67666666A400002085
:101D4C00B800002080B483B000AF78607B68084A8C
:101D5C0082FB03129210DB17D31A064A1360064B50
:101D6C0000221A6000BF0C37BD4680BC704700BF14
:101D7C0067666666A8000020BC00002080B400AF37
:101D8C00294B1B68002B0BDD274B1B68013B264A9C
:101D9C001360254B1B68002B02DC244B01221A60BC
:101DAC00234B1B68002B0BDD214B1B68013B204A8E
:101DBC0013601F4B1B68002B02DC1E4B01221A60A8
:101DCC001D4B1B68002B0BDD1B4B1B68013B1A4A80
:101DDC001360194B1B68002B02DC184B01221A6094
:101DEC00174B1B68002B0BDD154B1B68013B144A72
:101DFC001360134B1B68002B02DC124B01221A6080
:101E0C00114B1B68002B0BDD0F4B1B68013B0E4A63
:101E1C0013600D4B1B68002B02DC0C4B01221A606B
:101E2C0000BFBD4680BC704798000020AC0000206D
:101E3C009C000020B0000020A0000020B400002076
:101E4C00A4000020B8000020A8000020BC00002046
:101E5C0080B400AF064B1B68012B04D1044B00224D
:101E6C001A60012300E000231846BD4680BC704771
:101E7C00AC00002080B400AF064B1B68012B04D1D2
:101E8C00044B00221A60012300E000231846BD46D3
:101E9C0080BC7047B000002080B400AF064B1B68BC
:101EAC00012B04D1044B00221A60012300E0002313
:101EBC001846BD4680BC7047B400002080B400AF0B
:101ECC00064B1B68012B04D1044B00221A60012322
:101EDC0000E000231846BD4680BC7047B8000020C7
:101EEC0080B400AF064B1B68012B04D1044B0022BD
:101EFC001A60012300E000231846BD4680BC7047E1
:101F0C00BC00002080B400AF044B00221A60044BCC
:101F1C0000221A6000BFBD4680BC70479C000020A8
:101F2C00B000002080B400AF044B00221A60044BB8
:101F3C0000221A6000BFBD4680BC7047A000002084
:101F4C00B400002080B400AF044B00221A60044B94
:101F5C0000221A6000BFBD4680BC7047A400002060
:101F6C00B800002080B400AF044B00221A60044B70
:101F7C0000221A6000BFBD4680BC7047A80000203C
:101F8C00BC000020FFF768FE0B480C490C4A0023EC
:101F9C0002E0D458C4500433C4188C42F9D3094A13
:101FAC00094C002301E013600432A242FBD301F080
:101FBC00F9FAFFF783F87047000000204C0000206E
:101FCC004C3600084C00002020010020FEE70000E9
:101FDC0080B500AF084B1B68074A43F01003136031
:101FEC00032000F023F90F2000F008F8FFF7ACFDF8
:101FFC000023184680BD00BF0020024080B582B08F
:10200C0000AF7860124B1A68124B1B7819464FF4CC
:10201C007A73B3FBF1F3B2FBF3F3184600F03BF920
:10202C000346002B01D001230EE07B680F2B0AD84E
:10203C00002279684FF0FF3000F003F9064A7B6804
:10204C001360002300E0012318460837BD4680BD0D
:10205C0040000020480000204400002080B400AF65
:10206C00054B1B781A46054B1B681344034A136037
:10207C0000BFBD4680BC7047480000201C010020FA
:10208C0080B400AF024B1B681846BD4680BC70473D
:10209C001C01002080B485B000AF78607B6803F031
:1020AC000703FB600C4BDB68BB60BA684FF6FF03A1
:1020BC001340BB60FB681A02BB68134343F0BF6359
:1020CC0043F40033BB60044ABB68D36000BF1437D1
:1020DC00BD4680BC704700BF00ED00E080B400AF8F
:1020EC00044BDB681B0A03F007031846BD4680BC93
:1020FC00704700BF00ED00E080B483B000AF034632
:10210C00FB7197F90730002B0BDBFB7903F01F02F7
:10211C00064997F907305B09012000FA02F241F8F1
:10212C00232000BF0C37BD4680BC704700E100E0A7
:10213C0080B483B000AF03463960FB7197F9073068
:10214C00002B0ADB3B68DAB20C4997F90730120115
:10215C00D2B20B4483F800230AE03B68DAB2084998
:10216C00FB7903F00F03043B1201D2B20B441A7635
:10217C0000BF0C37BD4680BC704700BF00E100E0DB
:10218C0000ED00E080B489B000AFF860B9607A600F
:10219C00FB6803F00703FB61FB69C3F10703042B26
:1021AC0028BF0423BB61FB690433062B02D9FB69EE
:1021BC00033B00E000237B614FF0FF32BB6902FA66
:1021CC0003F3DA43BB681A407B699A404FF0FF3146
:1021DC007B6901FA03F3D9437B680B401343184620
:1021EC002437BD4680BC704780B582B000AF7860A4
:1021FC007B68013BB3F1807F01D301230FE00A4AD6
:10220C007B68013B53600F214FF0FF30FFF790FFCD
:10221C00054B00229A60044B07221A6000231846D3
:10222C000837BD4680BD00BF10E000E080B582B02D
:10223C0000AF78607868FFF72DFF00BF0837BD4608
:10224C0080BD80B586B000AF0346B9607A60FB7381
:10225C0000237B61FFF742FF78617A68B96878697F
:10226C00FFF790FF024697F90F3011461846FFF71B
:10227C005FFF00BF1837BD4680BD80B582B000AF90
:10228C000346FB7197F907301846FFF735FF00BF7F
:10229C000837BD4680BD80B582B000AF78607868E5
:1022AC00FFF7A2FF034618460837BD4680BD000065
:1022BC0080B48BB000AF7860396000237B62002360
:1022CC003B6248E101227B6A02FA03F3FB613B6843
:1022DC001B68FA691340BB61BA69FB699A4240F00A
:1022EC0037813B685B68A34A93425ED0A14A934214
:1022FC0075D8A14A934258D09F4A93426FD89F4AAF
:10230C00934252D09D4A934269D89D4A93424CD0F5
:10231C009B4A934263D89B4A934246D0994A934234
:10232C005DD8122B2AD8122B59D801A252F823F0BF
:10233C00B723000891230008A3230008E523000815
:10234C00EB230008EB230008EB230008EB23000829
:10235C00EB230008EB230008EB230008EB23000819
:10236C00EB230008EB230008EB230008EB23000809
:10237C00EB23000899230008AD230008824A9342FE
:10238C0013D02CE03B68DB683B6229E03B68DB68E0
:10239C0004333B6224E03B68DB6808333B621FE09C
:1023AC003B68DB680C333B621AE03B689B68002B94
:1023BC0002D104233B6213E03B689B68012B05D1DF
:1023CC0008233B627B68FA691A6109E008233B62C7
:1023DC007B68FA695A6103E000233B6200E000BFAE
:1023EC00BB69FF2B01D87B6801E07B6804337B6100
:1023FC00BB69FF2B02D87B6A9B0002E07B6A083B1F
:10240C009B003B617B691A680F213B6901FA03F35E
:10241C00DB431A40396A3B6901FA03F31A437B69BF
:10242C001A603B685B6803F08053002B00F09080CF
:10243C00564B9B69554A43F001039361534B9B697F
:10244C0003F00103BB60BB68514A7B6A9B080233F3
:10245C0052F82330FB607B6A03F003039B000F22CE
:10246C0002FA03F3DB43FA681340FB607B68494ACA
:10247C0093420DD07B68484A934207D07B68474A09
:10248C00934201D1022304E0032302E0012300E084
:10249C0000237A6A02F0030292009340FA68134315
:1024AC00FB603B497B6A9B080233FA6841F82320A6
:1024BC003B685B6803F48013002B06D0384B9A689A
:1024CC003749BB6913438B6006E0354B9A68BB698F
:1024DC00DB43334913408B603B685B6803F40013A8
:1024EC00002B06D02E4BDA682D49BB691343CB6009
:1024FC0006E02B4BDA68BB69DB4329491340CB6000
:10250C003B685B6803F40033002B06D0244B5A68FD
:10251C002349BB6913434B6006E0214B5A68BB69E6
:10252C00DB431F4913404B603B685B6803F480330B
:10253C00002B06D01A4B1A681949BB6913430B6060
:10254C0006E0174B1A68BB69DB43154913400B6057
:10255C007B6A01337B623B681A687B6A22FA03F35D
:10256C00002B7FF4AFAE00BF00BF2C37BD4680BC44
:10257C00704700BF00003210000031100000221024
:10258C000000211000001210000011100010024079
:10259C000000014000080140000C01400010014007
:1025AC000004014080B485B000AF78600B467B809E
:1025BC007B689A687B881340002B02D00123FB7345
:1025CC0001E00023FB73FB7B18461437BD4680BC2F
:1025DC00704780B483B000AF78600B467B801346A5
:1025EC007B707B78002B03D07A887B681A6103E0C0
:1025FC007B881A047B681A6100BF0C37BD4680BC0F
:10260C00704780B485B000AF78600B467B807B68E8
:10261C00DB68FB607A88FB6813401A04FB68D943BB
:10262C007B880B401A437B681A6100BF1437BD4688
:10263C0080BC704780B586B000AF78607B68002B9B
:10264C0001D101236CE27B681B6803F00103002BB2
:10265C0000F08780924B5B6803F00C03042B0CD0CA
:10266C008F4B5B6803F00C03082B12D18C4B5B680F
:10267C0003F48033B3F5803F0BD1894B1B6803F413
:10268C000033002B6CD07B685B68002B68D1012376
:10269C0046E27B685B68B3F5803F06D1804B1B68D4
:1026AC007F4A43F4803313602EE07B685B68002B19
:1026BC000CD17B4B1B687A4A23F480331360784B24
:1026CC001B68774A23F4802313601DE07B685B68EA
:1026DC00B3F5A02F0CD1724B1B68714A43F48023C5
:1026EC0013606F4B1B686E4A43F4803313600BE02E
:1026FC006B4B1B686A4A23F480331360684B1B686E
:10270C00674A23F4802313607B685B68002B13D02B
:10271C00FFF7B6FC386108E0FFF7B2FC02463B69F4
:10272C00D31A642B01D90323FAE15D4B1B6803F424
:10273C000033002BF0D014E0FFF7A2FC386108E066
:10274C00FFF79EFC02463B69D31A642B01D9032385
:10275C00E6E1534B1B6803F40033002BF0D100E08F
:10276C0000BF7B681B6803F00203002B63D04C4B4B
:10277C005B6803F00C03002B0BD0494B5B6803F038
:10278C000C03082B1CD1464B5B6803F48033002BE5
:10279C0016D1434B1B6803F00203002B05D07B685A
:1027AC001B69012B01D00123BAE13D4B1B6823F0BF
:1027BC00F8027B685B69DB00394913430B603AE034
:1027CC007B681B69002B20D0364B01221A60FFF767
:1027DC0057FC386108E0FFF753FC02463B69D31AFB
:1027EC00022B01D903239BE12D4B1B6803F0020341
:1027FC00002BF0D02A4B1B6823F0F8027B685B6936
:10280C00DB00274913430B6015E0264B00221A60AE
:10281C00FFF736FC386108E0FFF732FC02463B69F3
:10282C00D31A022B01D903237AE11D4B1B6803F049
:10283C000203002BF0D17B681B6803F00803002B0C
:10284C003AD07B689B69002B19D0174B01221A6078
:10285C00FFF716FC386108E0FFF712FC02463B69F3
:10286C00D31A022B01D903235AE10D4B5B6A03F0F7
:10287C000203002BF0D0012000F09AFA1CE00A4B66
:10288C0000221A60FFF7FCFB38610FE0FFF7F8FB42
:10289C0002463B69D31A022B08D9032340E100BF3F
:1028AC000010024000004242800442429E4B5B6A90
:1028BC0003F00203002BE9D17B681B6803F00403CF
:1028CC00002B00F0A6800023FB75974BDB6903F00F
:1028DC008053002B0DD1944BDB69934A43F080530A
:1028EC00D361914BDB6903F08053BB60BB68012360
:1028FC00FB758E4B1B6803F48073002B18D18B4B2C
:10290C001B688A4A43F480731360FFF7B9FB386184
:10291C0008E0FFF7B5FB02463B69D31A642B01D9DB
:10292C000323FDE0814B1B6803F48073002BF0D074
:10293C007B68DB68012B06D17B4B1B6A7A4A43F020
:10294C00010313622DE07B68DB68002B0CD1764B06
:10295C001B6A754A23F001031362734B1B6A724A9C
:10296C0023F0040313621CE07B68DB68052B0CD19D
:10297C006D4B1B6A6C4A43F0040313626A4B1B6A6F
:10298C00694A43F0010313620BE0674B1B6A664A0A
:10299C0023F001031362644B1B6A634A23F00403A4
:1029AC0013627B68DB68002B15D0FFF769FB38617D
:1029BC000AE0FFF765FB02463B69D31A41F2883205
:1029CC00934201D90323ABE0574B1B6A03F002037C
:1029DC00002BEED014E0FFF753FB38610AE0FFF751
:1029EC004FFB02463B69D31A41F28832934201D91C
:1029FC00032395E04C4B1B6A03F00203002BEED132
:102A0C00FB7D012B05D1484BDB69474A23F08053F2
:102A1C00D3617B68DB69002B00F08180424B5B68E3
:102A2C0003F00C03082B61D07B68DB69022B46D1C9
:102A3C003F4B00221A60FFF723FB386108E0FFF7D9
:102A4C001FFB02463B69D31A022B01D9032367E013
:102A5C00354B1B6803F00073002BF0D17B681B6AAD
:102A6C00B3F5803F08D1304B5B6823F400327B68B0
:102A7C009B682D4913434B602B4B5B6823F47412FA
:102A8C007B68196A7B685B6A0B43274913434B606D
:102A9C00274B01221A60FFF7F3FA386108E0FFF7C1
:102AAC00EFFA02463B69D31A022B01D9032337E014
:102ABC001D4B1B6803F00073002BF0D02FE01C4B58
:102ACC0000221A60FFF7DCFA386108E0FFF7D8FA49
:102ADC0002463B69D31A022B01D9032320E0124B87
:102AEC001B6803F00073002BF0D118E07B68DB69E6
:102AFC00012B01D1012313E00B4B5B68FB60FB68DE
:102B0C0003F480327B681B6A9A4206D1FB6803F49B
:102B1C0070127B685B6A9A4201D0012300E00023AB
:102B2C0018461837BD4680BD0010024000700040AA
:102B3C006000424280B584B000AF786039607B6839
:102B4C00002B01D10123D0E06A4B1B6803F0070373
:102B5C003A689A4210D9674B1B6823F00702654903
:102B6C003B6813430B60634B1B6803F007033A6825
:102B7C009A4201D00123B8E07B681B6803F0020382
:102B8C00002B20D07B681B6803F00403002B05D0BE
:102B9C00594B5B68584A43F4E06353607B681B688D
:102BAC0003F00803002B05D0534B5B68524A43F4E7
:102BBC0060535360504B5B6823F0F0027B689B685A
:102BCC004D4913434B607B681B6803F00103002BDA
:102BDC0040D07B685B68012B07D1474B1B6803F423
:102BEC000033002B15D101237FE07B685B68022B3F
:102BFC0007D1414B1B6803F00073002B09D1012353
:102C0C0073E03D4B1B6803F00203002B01D1012341
:102C1C006BE0394B5B6823F003027B685B683649D9
:102C2C0013434B60FFF72CFAF8600AE0FFF728FA21
:102C3C000246FB68D31A41F28832934201D903232E
:102C4C0053E02D4B5B6803F00C027B685B689B00C8
:102C5C009A42EBD1274B1B6803F007033A689A4260
:102C6C0010D2244B1B6823F0070222493B68134304
:102C7C000B60204B1B6803F007033A689A4201D0A3
:102C8C00012332E07B681B6803F00403002B08D09F
:102C9C00194B5B6823F4E0627B68DB6816491343CD
:102CAC004B607B681B6803F00803002B09D0124BA8
:102CBC005B6823F460527B681B69DB000E4913438D
:102CCC004B6000F021F802460B4B5B681B0903F0CC
:102CDC000F030A49CB5C22FA03F3094A1360094B30
:102CEC001B681846FFF78AF9002318461037BD46B3
:102CFC0080BD00BF002002400010024020360008BA
:102D0C00400000204400002080B487B000AF0023B6
:102D1C00FB600023BB6000237B6100237B600023EE
:102D2C003B611E4B5B68FB60FB6803F00C03042BE0
:102D3C0002D0082B03D027E0194B3B6127E0FB683E
:102D4C009B0C03F00F03174AD35C7B60FB6803F406
:102D5C008033002B10D0114B5B685B0C03F001032C
:102D6C00114AD35CBB607B680D4A02FB03F2BB6863
:102D7C00B2FBF3F37B6104E07B680C4A02FB03F3C8
:102D8C007B617B693B6102E0054B3B6100BF3B69AA
:102D9C0018461C37BD4680BC704700BF001002406F
:102DAC0000127A00303600084036000800093D0059
:102DBC0080B485B000AF78600A4B1B680A4AA2FB4E
:102DCC0003235B0A7A6802FB03F3FB6000BFFB681A
:102DDC005A1EFA60002BF9D100BF00BF1437BD4654
:102DEC0080BC704740000020D34D621080B582B08B
:102DFC0000AF78607B68002B01D1012341E07B6838
:102E0C0093F83D30DBB2002B06D17B68002283F8AF
:102E1C003C207868FEF7CAFE7B68022283F83D20CE
:102E2C007B681A687B6804331946104600F056FA22
:102E3C007B68012283F846207B68012283F83E20C0
:102E4C007B68012283F83F207B68012283F84020B5
:102E5C007B68012283F841207B68012283F84220A1
:102E6C007B68012283F843207B68012283F844208D
:102E7C007B68012283F845207B68012283F83D2082
:102E8C00002318460837BD4680BD000080B485B0CD
:102E9C0000AF78607B6893F83D30DBB2012B01D03A
:102EAC00012335E07B68022283F83D207B681B6898
:102EBC00DA687B681B6842F00102DA607B681B6889
:102ECC00164A934209D07B681B68B3F1804F04D03B
:102EDC007B681B68124A934211D17B681B689B6804
:102EEC0003F00703FB60FB68062B10D07B681B68A4
:102EFC001A687B681B6842F001021A6007E07B6865
:102F0C001B681A687B681B6842F001021A60002378
:102F1C0018461437BD4680BC704700BF002C0140DA
:102F2C000004004080B584B000AF78607B681B68FB
:102F3C00DB68FB607B681B681B69BB60BB6803F0CC
:102F4C000203002B20D0FB6803F00203002B1BD0E4
:102F5C007B681B686FF002021A617B6801221A778A
:102F6C007B681B689B6903F00303002B03D0786814
:102F7C0000F098F905E0786800F08BF9786800F0BB
:102F8C009AF97B6800221A77BB6803F00403002BC4
:102F9C0020D0FB6803F00403002B1BD07B681B685C
:102FAC006FF004021A617B6802221A777B681B6837
:102FBC009B6903F44073002B03D0786800F072F91E
:102FCC0005E0786800F065F9786800F074F97B68C2
:102FDC0000221A77BB6803F00803002B20D0FB6893
:102FEC0003F00803002B1BD07B681B686FF00802F2
:102FFC001A617B6804221A777B681B68DB6903F013
:10300C000303002B03D0786800F04CF905E07868D6
:10301C0000F03FF9786800F04EF97B6800221A77CF
:10302C00BB6803F01003002B20D0FB6803F01003E7
:10303C00002B1BD07B681B686FF010021A617B6839
:10304C0008221A777B681B68DB6903F44073002B3A
:10305C0003D0786800F026F905E0786800F019F9DB
:10306C00786800F028F97B6800221A77BB6803F0B7
:10307C000103002B0CD0FB6803F00103002B07D0DD
:10308C007B681B686FF001021A617868FEF71CF907
:10309C00BB6803F08003002B0CD0FB6803F08003AB
:1030AC00002B07D07B681B686FF080021A61786870
:1030BC0000F06FFABB6803F04003002B0CD0FB68E8
:1030CC0003F04003002B07D07B681B686FF04002B5
:1030DC001A61786800F0F8F8BB6803F02003002B45
:1030EC000CD0FB6803F02003002B07D07B681B6817
:1030FC006FF020021A61786800F042FA00BF1037B6
:10310C00BD4680BD80B584B000AF786039600023C7
:10311C00FB737B6893F83C30012B01D10223B4E0A4
:10312C007B68012283F83C207B68022283F83D20D7
:10313C007B681B689B68BB60BB6823F07703BB6034
:10314C00BB6823F47F43BB607B681B68BA689A60DA
:10315C003B681B68B3F5005F3ED0B3F5005F00F22F
:10316C008780B3F5805F00F08680B3F5805F7FD8F1
:10317C00702B1AD0702B7BD8602B50D0602B77D84B
:10318C00502B3CD0502B73D8402B58D0402B6FD8A1
:10319C00302B64D0302B6BD8202B60D0202B67D8F1
:1031AC00002B5CD0102B5AD062E07B6818683B680F
:1031BC0099683B685A683B68DB6800F06AF97B6881
:1031CC001B689B68BB60BB6843F07703BB607B6884
:1031DC001B68BA689A604FE07B6818683B6899680E
:1031EC003B685A683B68DB6800F053F97B681B68E6
:1031FC009A687B681B6842F480429A603CE07B686A
:10320C0018683B6859683B68DB681A4600F0CAF8D6
:10321C007B681B685021184600F021F92CE07B6874
:10322C0018683B6859683B68DB681A4600F0E8F898
:10323C007B681B686021184600F011F91CE07B6864
:10324C0018683B6859683B68DB681A4600F0AAF8B6
:10325C007B681B684021184600F001F90CE07B6884
:10326C001A683B681B681946104600F0F8F803E032
:10327C000123FB7300E000BF7B68012283F83D2033
:10328C007B68002283F83C20FB7B18461037BD4638
:10329C0080BD80B483B000AF786000BF0C37BD46F2
:1032AC0080BC704780B483B000AF786000BF0C372F
:1032BC00BD4680BC704780B483B000AF786000BF5F
:1032CC000C37BD4680BC704780B483B000AF7860CB
:1032DC0000BF0C37BD4680BC7047000080B485B081
:1032EC0000AF786039607B681B68FB607B682B4A99
:1032FC00934207D07B68B3F1804F03D07B68284A98
:10330C00934208D1FB6823F07003FB603B685B6859
:10331C00FA681343FB607B68204A934207D07B68B2
:10332C00B3F1804F03D07B681D4A934208D1FB68F0
:10333C0023F44073FB603B68DB68FA681343FB6063
:10334C00FB6823F080023B685B691343FB607B687E
:10335C00FA681A603B689A687B68DA623B681A689C
:10336C007B689A627B680D4A934203D13B681A6969
:10337C007B681A637B6801225A617B681B6903F0C6
:10338C000103002B05D07B681B6923F001027B68CD
:10339C001A6100BF1437BD4680BC7047002C014039
:1033AC000004004080B487B000AFF860B9607A6068
:1033BC00FB681B6A7B61FB681B6A23F00102FB68DC
:1033CC001A62FB689B693B613B6923F0F0033B612C
:1033DC007B681B013A6913433B617B6923F00A0349
:1033EC007B617A69BB6813437B61FB683A699A61BC
:1033FC00FB687A691A6200BF1C37BD4680BC7047F7
:10340C0080B487B000AFF860B9607A60FB681B6A63
:10341C007B61FB681B6A23F01002FB681A62FB6875
:10342C009B693B613B6923F470433B617B681B03E5
:10343C003A6913433B617B6923F0A0037B61BB6852
:10344C001B017A6913437B61FB683A699A61FB68DB
:10345C007A691A6200BF1C37BD4680BC704780B4C5
:10346C0085B000AF786039607B689B68FB60FB6857
:10347C0023F07003FB603A68FB68134343F00703C7
:10348C00FB607B68FA689A6000BF1437BD4680BC4D
:10349C00704780B487B000AFF860B9607A603B6069
:1034AC00FB689B687B617B6923F47F437B613B6892
:1034BC001A027B681A43BB6813437A6913437B6116
:1034CC00FB687A699A6000BF1C37BD4680BC7047A8
:1034DC0080B485B000AF786039607B6893F83C307D
:1034EC00012B01D1022341E07B68012283F83C20AF
:1034FC007B68022283F83D207B681B685B68FB605D
:10350C007B681B689B68BB60FB6823F07003FB60E7
:10351C003B681B68FA681343FB607B681B68FA689E
:10352C005A607B681B68144A934209D07B681B68FD
:10353C00B3F1804F04D07B681B68104A93420CD1C6
:10354C00BB6823F08003BB603B685B68BA681343BD
:10355C00BB607B681B68BA689A607B68012283F841
:10356C003D207B68002283F83C200023184614374A
:10357C00BD4680BC704700BF002C014000040040D9
:10358C0080B483B000AF786000BF0C37BD4680BC00
:10359C00704780B483B000AF786000BF0C37BD4675
:1035AC0080BC704770B500260C4D0D4C641BA410EC
:1035BC00A64209D100F022F800260A4D0A4C641BE1
:1035CC00A410A64205D170BD55F8043B98470136AE
:1035DC00EEE755F8043B98470136F2E7443600080D
:1035EC0044360008443600084836000803460244B6
:1035FC00934200D1704703F8011BF9E7F8B500BFFF
:10360C00F8BC08BC9E467047F8B500BFF8BC08BCB7
:04361C009E4670470F
:103620000000000000000000010203040607080972
:1036300002030405060708090A0B0C0D0E0F1010F3
:043640000102000083
:043644003101000848
:043648000D01000868
:10364C00010000000100000001000000010000006A
:10365C001200000088130000D0070000B80B000017
:10366C0088130000D0070000B80B00000100000018
:10367C0001000000F4010000002000400080000068
:0C368C0000127A00100000000100000095
:0400000508001F913F
:00000001FF
